{
  "_format": "hh-sol-artifact-1",
  "contractName": "DonationJar",
  "sourceName": "contracts/DonationJar.sol",
  "abi": [
    {
      "anonymous": false,
      "inputs": [
        {
          "indexed": true,
          "internalType": "address",
          "name": "donator",
          "type": "address"
        },
        {
          "indexed": true,
          "internalType": "address",
          "name": "recipient",
          "type": "address"
        },
        {
          "indexed": false,
          "internalType": "uint256",
          "name": "amount",
          "type": "uint256"
        },
        {
          "indexed": false,
          "internalType": "string",
          "name": "message",
          "type": "string"
        },
        {
          "indexed": false,
          "internalType": "uint256",
          "name": "timestamp",
          "type": "uint256"
        }
      ],
      "name": "Donated",
      "type": "event"
    },
    {
      "inputs": [
        {
          "internalType": "address",
          "name": "recipient",
          "type": "address"
        },
        {
          "internalType": "string",
          "name": "message",
          "type": "string"
        }
      ],
      "name": "addDonate",
      "outputs": [],
      "stateMutability": "payable",
      "type": "function"
    },
    {
      "inputs": [
        {
          "internalType": "uint256",
          "name": "",
          "type": "uint256"
        }
      ],
      "name": "donations",
      "outputs": [
        {
          "internalType": "address",
          "name": "donator",
          "type": "address"
        },
        {
          "internalType": "address",
          "name": "recipient",
          "type": "address"
        },
        {
          "internalType": "uint256",
          "name": "amount",
          "type": "uint256"
        },
        {
          "internalType": "string",
          "name": "message",
          "type": "string"
        },
        {
          "internalType": "uint256",
          "name": "timestamp",
          "type": "uint256"
        }
      ],
      "stateMutability": "view",
      "type": "function"
    },
    {
      "inputs": [],
      "name": "getMyDonates",
      "outputs": [
        {
          "components": [
            {
              "internalType": "address",
              "name": "donator",
              "type": "address"
            },
            {
              "internalType": "address",
              "name": "recipient",
              "type": "address"
            },
            {
              "internalType": "uint256",
              "name": "amount",
              "type": "uint256"
            },
            {
              "internalType": "string",
              "name": "message",
              "type": "string"
            },
            {
              "internalType": "uint256",
              "name": "timestamp",
              "type": "uint256"
            }
          ],
          "internalType": "struct DonationJar.Donation[]",
          "name": "",
          "type": "tuple[]"
        }
      ],
      "stateMutability": "view",
      "type": "function"
    },
    {
      "inputs": [
        {
          "internalType": "address",
          "name": "user",
          "type": "address"
        }
      ],
      "name": "getRank",
      "outputs": [
        {
          "internalType": "enum DonationJar.Rank",
          "name": "",
          "type": "uint8"
        }
      ],
      "stateMutability": "view",
      "type": "function"
    },
    {
      "inputs": [],
      "name": "getReceivedDonations",
      "outputs": [
        {
          "components": [
            {
              "internalType": "address",
              "name": "donator",
              "type": "address"
            },
            {
              "internalType": "address",
              "name": "recipient",
              "type": "address"
            },
            {
              "internalType": "uint256",
              "name": "amount",
              "type": "uint256"
            },
            {
              "internalType": "string",
              "name": "message",
              "type": "string"
            },
            {
              "internalType": "uint256",
              "name": "timestamp",
              "type": "uint256"
            }
          ],
          "internalType": "struct DonationJar.Donation[]",
          "name": "",
          "type": "tuple[]"
        }
      ],
      "stateMutability": "view",
      "type": "function"
    },
    {
      "inputs": [
        {
          "internalType": "address",
          "name": "",
          "type": "address"
        }
      ],
      "name": "totalDonated",
      "outputs": [
        {
          "internalType": "uint256",
          "name": "",
          "type": "uint256"
        }
      ],
      "stateMutability": "view",
      "type": "function"
    }
  ],
  "bytecode": "0x6080604052348015600f57600080fd5b506119748061001f6000396000f3fe6080604052600436106100555760003560e01c80630f3a1d471461005a578063332fd67414610097578063548c0ef4146100c2578063845e30d5146100ff5780639c36a4071461012a578063f8626af814610146575b600080fd5b34801561006657600080fd5b50610081600480360381019061007c9190610e26565b610187565b60405161008e9190610e6c565b60405180910390f35b3480156100a357600080fd5b506100ac61019f565b6040516100b9919061106d565b60405180910390f35b3480156100ce57600080fd5b506100e960048036038101906100e49190610e26565b6104eb565b6040516100f69190611106565b60405180910390f35b34801561010b57600080fd5b5061011461059e565b604051610121919061106d565b60405180910390f35b610144600480360381019061013f9190611256565b6108ea565b005b34801561015257600080fd5b5061016d600480360381019061016891906112de565b610c4b565b60405161017e959493929190611364565b60405180910390f35b60016020528060005260406000206000915090505481565b60606000805b600080549050811015610246573373ffffffffffffffffffffffffffffffffffffffff16600082815481106101dd576101dc6113be565b5b906000526020600020906005020160010160009054906101000a900473ffffffffffffffffffffffffffffffffffffffff1673ffffffffffffffffffffffffffffffffffffffff16036102395781806102359061141c565b9250505b80806001019150506101a5565b5060008167ffffffffffffffff8111156102635761026261112b565b5b60405190808252806020026020018201604052801561029c57816020015b610289610d59565b8152602001906001900390816102815790505b5090506000805b6000805490508110156104e1573373ffffffffffffffffffffffffffffffffffffffff16600082815481106102db576102da6113be565b5b906000526020600020906005020160010160009054906101000a900473ffffffffffffffffffffffffffffffffffffffff1673ffffffffffffffffffffffffffffffffffffffff16036104d4576000818154811061033c5761033b6113be565b5b90600052602060002090600502016040518060a00160405290816000820160009054906101000a900473ffffffffffffffffffffffffffffffffffffffff1673ffffffffffffffffffffffffffffffffffffffff1673ffffffffffffffffffffffffffffffffffffffff1681526020016001820160009054906101000a900473ffffffffffffffffffffffffffffffffffffffff1673ffffffffffffffffffffffffffffffffffffffff1673ffffffffffffffffffffffffffffffffffffffff1681526020016002820154815260200160038201805461041b90611493565b80601f016020809104026020016040519081016040528092919081815260200182805461044790611493565b80156104945780601f1061046957610100808354040283529160200191610494565b820191906000526020600020905b81548152906001019060200180831161047757829003601f168201915b505050505081526020016004820154815250508383815181106104ba576104b96113be565b5b602002602001018190525081806104d09061141c565b9250505b80806001019150506102a3565b5081935050505090565b600080600160008473ffffffffffffffffffffffffffffffffffffffff1673ffffffffffffffffffffffffffffffffffffffff168152602001908152602001600020549050674563918244f400008110610549576004915050610599565b670de0b6b3a76400008110610562576003915050610599565b67016345785d8a0000811061057b576002915050610599565b662386f26fc100008110610593576001915050610599565b60009150505b919050565b60606000805b600080549050811015610645573373ffffffffffffffffffffffffffffffffffffffff16600082815481106105dc576105db6113be565b5b906000526020600020906005020160000160009054906101000a900473ffffffffffffffffffffffffffffffffffffffff1673ffffffffffffffffffffffffffffffffffffffff16036106385781806106349061141c565b9250505b80806001019150506105a4565b5060008167ffffffffffffffff8111156106625761066161112b565b5b60405190808252806020026020018201604052801561069b57816020015b610688610d59565b8152602001906001900390816106805790505b5090506000805b6000805490508110156108e0573373ffffffffffffffffffffffffffffffffffffffff16600082815481106106da576106d96113be565b5b906000526020600020906005020160000160009054906101000a900473ffffffffffffffffffffffffffffffffffffffff1673ffffffffffffffffffffffffffffffffffffffff16036108d3576000818154811061073b5761073a6113be565b5b90600052602060002090600502016040518060a00160405290816000820160009054906101000a900473ffffffffffffffffffffffffffffffffffffffff1673ffffffffffffffffffffffffffffffffffffffff1673ffffffffffffffffffffffffffffffffffffffff1681526020016001820160009054906101000a900473ffffffffffffffffffffffffffffffffffffffff1673ffffffffffffffffffffffffffffffffffffffff1673ffffffffffffffffffffffffffffffffffffffff1681526020016002820154815260200160038201805461081a90611493565b80601f016020809104026020016040519081016040528092919081815260200182805461084690611493565b80156108935780601f1061086857610100808354040283529160200191610893565b820191906000526020600020905b81548152906001019060200180831161087657829003601f168201915b505050505081526020016004820154815250508383815181106108b9576108b86113be565b5b602002602001018190525081806108cf9061141c565b9250505b80806001019150506106a2565b5081935050505090565b66038d7ea4c68000341015610934576040517f08c379a000000000000000000000000000000000000000000000000000000000815260040161092b90611510565b60405180910390fd5b600073ffffffffffffffffffffffffffffffffffffffff168273ffffffffffffffffffffffffffffffffffffffff16036109a3576040517f08c379a000000000000000000000000000000000000000000000000000000000815260040161099a9061157c565b60405180910390fd5b60006040518060a001604052803373ffffffffffffffffffffffffffffffffffffffff1681526020018473ffffffffffffffffffffffffffffffffffffffff16815260200134815260200183815260200142815250908060018154018082558091505060019003906000526020600020906005020160009091909190915060008201518160000160006101000a81548173ffffffffffffffffffffffffffffffffffffffff021916908373ffffffffffffffffffffffffffffffffffffffff16021790555060208201518160010160006101000a81548173ffffffffffffffffffffffffffffffffffffffff021916908373ffffffffffffffffffffffffffffffffffffffff160217905550604082015181600201556060820151816003019081610ace9190611748565b5060808201518160040155505034600160003373ffffffffffffffffffffffffffffffffffffffff1673ffffffffffffffffffffffffffffffffffffffff1681526020019081526020016000206000828254610b2a919061181a565b9250508190555060008273ffffffffffffffffffffffffffffffffffffffff1634604051610b579061187f565b60006040518083038185875af1925050503d8060008114610b94576040519150601f19603f3d011682016040523d82523d6000602084013e610b99565b606091505b5050905080610bdd576040517f08c379a0000000000000000000000000000000000000000000000000000000008152600401610bd4906118e0565b60405180910390fd5b8273ffffffffffffffffffffffffffffffffffffffff163373ffffffffffffffffffffffffffffffffffffffff167feb6416db9bff4f7b9caa6b4bbba7051327fc5fe5d0f7c7ff6d8966fc8be5edfe348542604051610c3e93929190611900565b60405180910390a3505050565b60008181548110610c5b57600080fd5b90600052602060002090600502016000915090508060000160009054906101000a900473ffffffffffffffffffffffffffffffffffffffff16908060010160009054906101000a900473ffffffffffffffffffffffffffffffffffffffff1690806002015490806003018054610cd090611493565b80601f0160208091040260200160405190810160405280929190818152602001828054610cfc90611493565b8015610d495780601f10610d1e57610100808354040283529160200191610d49565b820191906000526020600020905b815481529060010190602001808311610d2c57829003601f168201915b5050505050908060040154905085565b6040518060a00160405280600073ffffffffffffffffffffffffffffffffffffffff168152602001600073ffffffffffffffffffffffffffffffffffffffff1681526020016000815260200160608152602001600081525090565b6000604051905090565b600080fd5b600080fd5b600073ffffffffffffffffffffffffffffffffffffffff82169050919050565b6000610df382610dc8565b9050919050565b610e0381610de8565b8114610e0e57600080fd5b50565b600081359050610e2081610dfa565b92915050565b600060208284031215610e3c57610e3b610dbe565b5b6000610e4a84828501610e11565b91505092915050565b6000819050919050565b610e6681610e53565b82525050565b6000602082019050610e816000830184610e5d565b92915050565b600081519050919050565b600082825260208201905092915050565b6000819050602082019050919050565b610ebc81610de8565b82525050565b610ecb81610e53565b82525050565b600081519050919050565b600082825260208201905092915050565b60005b83811015610f0b578082015181840152602081019050610ef0565b60008484015250505050565b6000601f19601f8301169050919050565b6000610f3382610ed1565b610f3d8185610edc565b9350610f4d818560208601610eed565b610f5681610f17565b840191505092915050565b600060a083016000830151610f796000860182610eb3565b506020830151610f8c6020860182610eb3565b506040830151610f9f6040860182610ec2565b5060608301518482036060860152610fb78282610f28565b9150506080830151610fcc6080860182610ec2565b508091505092915050565b6000610fe38383610f61565b905092915050565b6000602082019050919050565b600061100382610e87565b61100d8185610e92565b93508360208202850161101f85610ea3565b8060005b8581101561105b578484038952815161103c8582610fd7565b945061104783610feb565b925060208a01995050600181019050611023565b50829750879550505050505092915050565b600060208201905081810360008301526110878184610ff8565b905092915050565b7f4e487b7100000000000000000000000000000000000000000000000000000000600052602160045260246000fd5b600581106110cf576110ce61108f565b5b50565b60008190506110e0826110be565b919050565b60006110f0826110d2565b9050919050565b611100816110e5565b82525050565b600060208201905061111b60008301846110f7565b92915050565b600080fd5b600080fd5b7f4e487b7100000000000000000000000000000000000000000000000000000000600052604160045260246000fd5b61116382610f17565b810181811067ffffffffffffffff821117156111825761118161112b565b5b80604052505050565b6000611195610db4565b90506111a1828261115a565b919050565b600067ffffffffffffffff8211156111c1576111c061112b565b5b6111ca82610f17565b9050602081019050919050565b82818337600083830152505050565b60006111f96111f4846111a6565b61118b565b90508281526020810184848401111561121557611214611126565b5b6112208482856111d7565b509392505050565b600082601f83011261123d5761123c611121565b5b813561124d8482602086016111e6565b91505092915050565b6000806040838503121561126d5761126c610dbe565b5b600061127b85828601610e11565b925050602083013567ffffffffffffffff81111561129c5761129b610dc3565b5b6112a885828601611228565b9150509250929050565b6112bb81610e53565b81146112c657600080fd5b50565b6000813590506112d8816112b2565b92915050565b6000602082840312156112f4576112f3610dbe565b5b6000611302848285016112c9565b91505092915050565b61131481610de8565b82525050565b600082825260208201905092915050565b600061133682610ed1565b611340818561131a565b9350611350818560208601610eed565b61135981610f17565b840191505092915050565b600060a082019050611379600083018861130b565b611386602083018761130b565b6113936040830186610e5d565b81810360608301526113a5818561132b565b90506113b46080830184610e5d565b9695505050505050565b7f4e487b7100000000000000000000000000000000000000000000000000000000600052603260045260246000fd5b7f4e487b7100000000000000000000000000000000000000000000000000000000600052601160045260246000fd5b600061142782610e53565b91507fffffffffffffffffffffffffffffffffffffffffffffffffffffffffffffffff8203611459576114586113ed565b5b600182019050919050565b7f4e487b7100000000000000000000000000000000000000000000000000000000600052602260045260246000fd5b600060028204905060018216806114ab57607f821691505b6020821081036114be576114bd611464565b5b50919050565b7f4d696e696d756d20646f6e6174696f6e20697320302e30312045544800000000600082015250565b60006114fa601c8361131a565b9150611505826114c4565b602082019050919050565b60006020820190508181036000830152611529816114ed565b9050919050565b7f526563697069656e742063616e6e6f74206265207a65726f2061646472657373600082015250565b600061156660208361131a565b915061157182611530565b602082019050919050565b6000602082019050818103600083015261159581611559565b9050919050565b60008190508160005260206000209050919050565b60006020601f8301049050919050565b600082821b905092915050565b6000600883026115fe7fffffffffffffffffffffffffffffffffffffffffffffffffffffffffffffffff826115c1565b61160886836115c1565b95508019841693508086168417925050509392505050565b6000819050919050565b600061164561164061163b84610e53565b611620565b610e53565b9050919050565b6000819050919050565b61165f8361162a565b61167361166b8261164c565b8484546115ce565b825550505050565b600090565b61168861167b565b611693818484611656565b505050565b5b818110156116b7576116ac600082611680565b600181019050611699565b5050565b601f8211156116fc576116cd8161159c565b6116d6846115b1565b810160208510156116e5578190505b6116f96116f1856115b1565b830182611698565b50505b505050565b600082821c905092915050565b600061171f60001984600802611701565b1980831691505092915050565b6000611738838361170e565b9150826002028217905092915050565b61175182610ed1565b67ffffffffffffffff81111561176a5761176961112b565b5b6117748254611493565b61177f8282856116bb565b600060209050601f8311600181146117b257600084156117a0578287015190505b6117aa858261172c565b865550611812565b601f1984166117c08661159c565b60005b828110156117e8578489015182556001820191506020850194506020810190506117c3565b868310156118055784890151611801601f89168261170e565b8355505b6001600288020188555050505b505050505050565b600061182582610e53565b915061183083610e53565b9250828201905080821115611848576118476113ed565b5b92915050565b600081905092915050565b50565b600061186960008361184e565b915061187482611859565b600082019050919050565b600061188a8261185c565b9150819050919050565b7f455448207472616e73666572206661696c656400000000000000000000000000600082015250565b60006118ca60138361131a565b91506118d582611894565b602082019050919050565b600060208201905081810360008301526118f9816118bd565b9050919050565b60006060820190506119156000830186610e5d565b8181036020830152611927818561132b565b90506119366040830184610e5d565b94935050505056fea2646970667358221220ab08ea34643b83eb78e6271831cfd861022e8e9b2cce257418480089f841fd7364736f6c634300081c0033",
  "linkReferences": {},
  "deployedLinkReferences": {}
}